:020000040800F2
:100000000050002091D200082DD300082DD3000805
:100010002DD300082DD300082DD3000800000000C8
:100020000000000000000000000000002DD30008C8
:100030002DD30008000000002DD3000871730008C4
:100040002DD300082DD300082DD300082DD3000890
:100050002DD300082DD300082DD300082DD3000880
:100060002DD30008817300082DD300082DD300087C
:100070002DD300082DD30008FD9400082DD30008CF
:100080002DD300082DD300082DD300082DD3000850
:100090002DD300082DD300082DD300082DD3000840
:1000A0002DD300082DD300082DD300082DD3000830
:1000B0002DD300082DD300082DD30008392C0008BB
:1000C0003F2C0008352C00083D2C00082DD30008DB
:1000D0002DD30008919400082DD300082DD30008DB
:1000E000857300082DD300082DD300080000000000
:1000F0000000000000000000000000000000000000
:0C01000000000000000000005FF808F1A3
:100110002DE9F04F9FB003F0D7FD18B904F00CF8AB
:1001200003F0F8FD03F09AFEB64BB74C1A789A46E6
:1001300042F001021A70002209920A920B924FF4C7
:10014000E0120C922268B14F42F48032B97B2260F7
:10015000A26942F01002A261236803F400330A93FB
:10016000099B013309930A9B1BB9099BB3F5A06F47
:10017000F2D1236813F4003300F02F8302230B9392
:10018000A34BA4481A68A44E42F010021A601A68E1
:1001900022F003021A601A6842F002021A606368D1
:1001A000636063686360636843F4806363609B4B70
:1001B0001A6822F070421A60994A1060606820F450
:1001C0007C106060186840F000401860F36823F409
:1001D0000043F3604FF4E0130C930B9B012B00F0F2
:1001E0001C83022B0ED139B10C9BB3F5801F40F05C
:1001F0000C834FF4A0130C930C9B61680B4343F4E6
:1002000080336360236843F08073236023689D011B
:10021000FCD5636823F003036360636843F0020363
:100220006360636803F00C03082BFAD163687D4DAB
:1002300003F00C03042B00F0F482082B00F0F3828F
:10024000744B2B606368DFF80CB2C3F303131BF825
:1002500003202B684FF00008D3402B600B9B724AA1
:10026000CAF80430B368714BDFF8EC91DA60A26928
:10027000049342F00102A261626A1EABCAF8082030
:10028000626A484642F080726262A26942F01C02D1
:10029000A2614FF6FF7223F8302D194603938DF8B3
:1002A0004A8002F00FF80399614802F00BF80399B5
:1002B000594802F007F802224FF010038DF837205A
:1002C0004FF400728DF836301EAB23F8442D0593A1
:1002D0004846C9F81020059901F0F4FF55490398E4
:1002E0004A6842F000724A6008F059FC129A52497A
:1002F000049BB2FBF1F25149DFF860C10A604FF490
:100300007A714F4A0BF1100EC2F80080C2F80480D7
:100310002A68B2FBF1F24B49013A4A60F02283F8B5
:1003200023200723C1F808800B60BB68039DCCF82D
:100330000030BEE80F000FC5BEE80F000FC59EE8F5
:100340000F0085E80F00A36943F01003A361A369C0
:1003500043F01003A361A36943F01003A361A369F1
:1003600043F00403A3611023C9F814302023C9F813
:1003700014304023C9F814304FF4804333614FF4F4
:10038000005333614FF400433361CDF81090E146E0
:10039000CDF818B0039B08F1040153F80800194484
:1003A00008F1080801F08EFFB8F1300FF2D1D9F84A
:1003B00000301B070BD597F82431012B07D8DAF84A
:1003C000082097F8253112F0805801F092804FF400
:1003D00000536420736106F068FF4FF48043A0224D
:1003E00073610021184810F05FF8E369174A43F081
:1003F0000703E361A369164E43F4006343F00C0363
:100400002EE000BF400B002000100240A00D002095
:100410000020024000127A00001001400410014048
:10042000F00200200C0000200005FA0500ED00E0BD
:10043000000C01400000014040420F00481700201E
:100440009414002010E000E0841700201C0F00200E
:10045000A413002094070108000801406C1C002030
:10046000A361C04B00211A600222BF4B30461A70B4
:100470001822D9F8005010F017F8002131703173AC
:100480007E791422059810F00FF80E2EC5F380180F
:1004900003D006F0EF06082E02D101238DF83E307E
:1004A000C5F340038DF83A30C5F340338DF834304E
:1004B000C5F3C0338DF8373015F400638DF83C80F8
:1004C00004D097F818319E1E734273418DF838306E
:1004D000C5F30043B7F8D4008DF83D30C5F3C00331
:1004E00005F0010105F008028DF83630C5F38043B0
:1004F000ED04ADF842008DF83B3048BFB7F8DC00A2
:10050000B7F8E03048BFADF84200B3F5FA7FADF878
:100510004030C4BF0023ADF8423097F868318DF801
:1005200035108AF80C300023AAF80D309DF83E30C3
:10053000002B14BF0223002301B902B101334FF095
:10054000000B069A02EB83031B6C9A1E1A3305926A
:100550000793059A32F8023F05924FF6FF729342D5
:1005600040F0918104220025804BDFF840E2804F6B
:100570001A7005EB0E06EB191035402D0FCB86E8EF
:100580000F00F6D17B4B7C4F1E687C4B3A681D6890
:1005900000237B4802F4805EBEF1000F00F056821B
:1005A000B5F9041020F8131001330C2BF4D15003CB
:1005B0005CBF0122734B4FF0000058BF1A709AF8CD
:1005C000003043F004038AF8003002F08DF83D68F3
:1005D000102205F0020500216B480FF065FFDDB128
:1005E000049B01201A680F25002300FA03F131F063
:1005F000080104BF990005FA01F103F1010308BFE6
:100600008A43082BF1D1049B01251A6003225E4B1B
:100610001A7007229D70DA7063685C4E43F44043A1
:1006200063606369304643F001036361A36943F487
:100630000073A36108F01AFB554B00241293554B2D
:10064000304613934FF4807318934FF480631993DB
:1006500020231A934FF40053039915951B93149478
:1006600016941C94179408F0E3FA33684A4943F04F
:10067000010333604B68013D23F4702323F480733E
:100680004B608A68454BEDB2134043F4602343F05E
:1006900002038B60CB6A204623F4700343EA0555BE
:1006A000CD6201231F254FF0070E374E8219947833
:1006B0004CB310F806805C1CB8F1090FE4B292F854
:1006C00003C040F2C681A8F10A02D1F80C9002EBF7
:1006D00042020EFA02FA29EA0A090CFA02F242EA86
:1006E0000902CA60062B00F2C18103F1FF3C4A6B8C
:1006F0000CEB8C0C05FA0CF322EA030308FA0CF25B
:100700001A434A63234604301028CFD1224B9A68FB
:1007100042F480729A609A6842F001029A609A6884
:1007200042F008029A609A681107FCD49A6842F075
:1007300004029A60184B9A685207FCD4184D9A68C4
:10074000B5F9E80042F4A0029A60002800F0CA81DE
:100750000022144B1A700BF0A5F913490BF0F6F9AF
:10076000129025E09C1F0020A0130020801700207D
:10077000C40801083C0A00206C1C0020380A002034
:10078000801F0020280B0020D01A00200800024003
:100790004C240140E01A002000240140FDF7F1FF45
:1007A000A00D0020F402002035FA8E3C640A0020DF
:1007B000B5F9EA000BF076F9BB490BF0C7F91390D5
:1007C000B5F9EC000BF06EF9B7490BF0BFF9B7497A
:1007D0001490039803F060F98EE1226842F0010260
:1007E00022600993236803F002030A93099B0133F3
:1007F00009930A9B1BB9099BB3F5A06FF2D123683B
:100800009E0701D50123BAE4FEE70C9BB3F5E01F78
:100810007FF4F2AC4FF40013EDE4636843F460132B
:10082000EFE413680DE563686168C3F38343C803AD
:1008300003F1020302D49E4A534302E56168126841
:10084000890348BF5208F7E7049BC6F81080782058
:100850005D6106F01FFD049BC6F8148078201D61C1
:1008600006F018FD0BF1010B97F825319B45EBDBEA
:10087000DAF8083013F080537FF4A9AD87F82531FA
:1008800003F050FCA3E5DAB28A4915014E199DF830
:1008900039101B0A11B1023A012A12D99DF83A20E7
:1008A0004AB1069A04982A44516D814203D1B2F8A4
:1008B0005820082A05D0022B09D19DF83430002B8E
:1008C0004ED1079B059A93427FF443AE4AE6012B33
:1008D00043D19DF83530002BF3D0FF238AF85430F4
:1008E0008AF85530069B00271D4495F85D30B5F811
:1008F00058208DF84A3002230399686D8AF85870A1
:10090000CAF864608DF84B30ADF848208AF8107052
:10091000CAF81470CAF81870CAF81C70CAF8507077
:100920008AF856708AF8577001F0CCFC3A4695F870
:100930005A10286D08F07EFE304602F0B7FC5E4B80
:100940005E4ACAF868305E4BCAF87070CAF86C30FC
:10095000111F304608F048FDB3E7022BDAB240D150
:100960004FF01C0801235FFA8BF108FB01F80AEB3A
:10097000080787F85830069B4FF000091D4495F88A
:100980005D30B5F858208DF84A30022387F859B009
:100990000399686D87F85A9087F862907E668DF8A3
:1009A0004B30ADF8482001F08DFC4A4695F85A10BE
:1009B000286D08F03FFE304602F078FC414B42497A
:1009C000BB66424B08F1140208F110080A44FB66AA
:1009D000C7F870904144304608F006FD0BF1010B5A
:1009E0006FE7032A7FF46DAF9DF83B30384D63B15C
:1009F00000234FF6FF7208219AF80E70304601F07E
:100A00009CFC344B45F8270013E0BDF840109AF8E1
:100A10000E70B1F5FA7FBDF8423011DD2E4A304636
:100A2000B2FBF1F2082192B201F087FC2B4B45F8A2
:100A30002700C3609AF80E3001338AF80E3040E781
:100A4000274AB2FBF1F2012192B2D7E7B6F90410BE
:100A5000A8E50A6908EB480A0EFA0AF922EA090928
:100A60000CFA0AF242EA09020A613BE60C2B0DD8A5
:100A7000DA1FD1F830C002EB820205FA02F32CEA49
:100A8000030308FA02F21A430A633BE60D3BCA6A03
:100A900003EB830305FA03FC22EA0C0208FA03F3D2
:100AA0001343CB622EE600BF35FA8E3C101C0020AB
:100AB00000093D00E4070108991E0008AC0B002066
:100AC000711F000869220008980B0020711E0008A1
:100AD00050170020811F000800127A00911F0008A3
:100AE00040420F00B5F9EA30002B7FF431AEB5F982
:100AF000EC30002B7FF42CAE4FF0000BC44EC54CF5
:100B000010225946C6F800B0C6F804B0C6F808B0BE
:100B1000C14884F838B1B5F8F0A095F8EF9095F891
:100B2000F7800FF0C1FC2320A4F839B1C4F83CB120
:100B3000C4F840B1C4F844B1C4F848B106F0B5FBFC
:100B40000DF121020121752001F05AFF00B3B34BD2
:100B50000DF12202C4F84031B14B0121C4F84431F7
:100B60004323584684F83C3101F04AFF9DF8223077
:100B700003F07E038DF82230002800F0FC80682B03
:100B800040F0F980012384F839311D2384F83C3189
:100B9000002094F83921A34B042A1870039340F0E5
:100BA000C9849D49A04B40F2FD1C0B609F4B0491F2
:100BB0004B609F4BCB609F4B1A689B4642F0010EE7
:100BC000C3F800E04FF0010E4B460A2B28BF00236C
:100BD00040F202290EFA03F111EA090940F0B28449
:100BE00011EA0C0F00F0AE84934B42F0030283F83D
:100BF0000090924BCBF800203360914B7360DBF890
:100C000000309B0701D5336898474FF00009049BDB
:100C100050461B689847CA468A4E86F800A0B8F12D
:100C2000000F04D0A8F10203022B00F2E9801EABF2
:100C300003F8309D012200210C2001F0A7FE0028BE
:100C400000F0DE809DF84830482B40F0D9807E4B84
:100C50007E4A1A607E4A5A6006233370DBF8003001
:100C600043F00803CBF8003095F8E4300BB1039A59
:100C7000137095F8E5300BB16F4A137095F8E630B4
:100C800003B1337095F8F830042B00F2E7804FF091
:100C9000010909FA03F212F0160865D112F0090FE2
:100CA00000F0DA800A2006F000FB0DF123034A462B
:100CB000A021772001F06AFE0646002854D04A465B
:100CC0001E21772001F0DCFE4FF42F6006F0E2FADF
:100CD000C146DFF880A1A8F1600112AB0222C9B2BF
:100CE00077208DF848908DF8499001F04FFE9DF8DF
:100CF00048209DF8493043EA022328F80A3008F1D9
:100D00000208B8F1100FE6D100231946B4F85A21B1
:100D100002F00F0E02F47F42A4F85A2121F00100E4
:100D20002044B0F84C01002818BF002611F0010F34
:100D30001ABFC0B2434083EA1023082013F4004FC7
:100D400018BF83F4C05301384FEA4303F6D1013191
:100D50001029E3D142EA0E02A4F85A2126B9C3F3BE
:100D600003339E4500F0F78394F8383143F02003B5
:100D700084F8383177E09DF8213003F07E03682B4A
:100D80008DF8213036D10223062184F83931039AB7
:100D9000D4F84031084698479DF84D309DF84B20D7
:100DA0009B00520002F0020203F0040313439DF87B
:100DB000492002F001021343DAB263B1012A03D1E0
:100DC000002384F83A31E3E6022A01D10123F8E74F
:100DD000022006F074FAD4F840310DF1230201210B
:100DE0000C2098479DF8233013F00F03F0D0042B0C
:100DF000ECD1E5E7702B04BF042384F83931C7E652
:100E0000B8F1010F7FF630AF4FF0000805E700BFE3
:100E1000B8080020400B002088180020012A000894
:100E20002D2C0008600800202D260008E121000874
:100E300090C1793D38130020C4080020D526000851
:100E4000252200083C08002034080020392B000827
:100E5000952A00088C0C0020012B85D08A4A136843
:100E600043F0040313606368012B02BF94F8383128
:100E700043F0400384F8383194F838610EB13046BD
:100E8000A7E723784FF0100843F0020323704FF4D4
:100E900000537E4C63614FF480432361B8F1010835
:100EA00012D0E368192083F40053E360E36883F40D
:100EB0008043E360E36883F40043E36006F0F5F900
:100EC000192006F0F2F9E9E74FF480434FF4005897
:100ED00023614FF40043C4F8108023616A4B1A6801
:100EE000994612F0080F09D0694BC4F814801B68AA
:100EF00098470122674BC4F810801A70664B674C04
:100F00001B68187B0AF0CEFD65490AF01FFE02F04F
:100F1000B9FD804620880AF0C5FD41460AF016FE5C
:100F20000EF0BAFC5F4B188020880AF0BBFD01462A
:100F30005D480AF0BFFE5D490AF008FE5C4B584967
:100F400018605C4B5C4CD8680AF000FE5B490AF004
:100F5000FDFD5B4B1B221860FF2120460FF0A4FA19
:100F6000002201212270D9F80020564B12F0020F06
:100F70001970204604D06170032119700221A170FC
:100F8000510704D519784C1C1C700324445412F0EA
:100F90000A0F40F0F6823C68A20604D51A78511C6C
:100FA0001970072181546A79082A01D00E2A04D1C8
:100FB0001A78511C19700B2181540C271A78875408
:100FC000511C670748BF0232C9B2197044BF1A707A
:100FD00010224FF0120748BF42541A78511CC9B270
:100FE00087546705197004D595F89071002F40F06B
:100FF000D682A70504D51A78511C19701521815481
:10100000E10504D51A78511C19701A2383549822CB
:1010100000212D480FF048FA012006F027F84FF084
:101020004C0ADFF8A480DFF8A4B0002850D0012ECD
:101030004EDC0AFB06F908EB090797F84A4014B1A1
:101040000136F6B2F1E70322037901210BEB8303AA
:1010500090F90000D3F8703100920194224605F017
:10106000A1FE039060B14C22214638460FF01CFAD5
:10107000039B48F8093001231E4487F84A30F6B232
:10108000012005F0D1FFD0E7381300200010014007
:1010900034080020F01200202C180020F602002056
:1010A00035FA8E3C4C1800200AE81C410000C8426A
:1010B000681900208818002045130020BD378635A8
:1010C0002818002044130020A009002094070108DC
:1010D000AE4AAF4BB5F8DE101A60AE4BAE4C19807D
:1010E0000023A646AD49AE480B808B70AD49026027
:1010F0000E68AD4AB5F82A01DFF82083AB4F06F140
:10110000790113700FFA80FCD8F8002024F813C07E
:1011100002F5167247F823200133122BF4D1A44CA8
:10112000C9362768FA0458BFB5F930C1AEF806C011
:101130000B7883B98A78CB789A420CD2EAB1013A1B
:1011400002EB820202EB820202F561734A789BB2E3
:1011500004322EF812300431B142E9D13B0721D5D7
:1011600095F82461062E17D8DFE816F00F007300FB
:101170007600A000BA00D400D400013303EB83034F
:1011800003EB830303F56173E0E745F2F052894B0B
:101190001A8002F0FFF828B9082002F05FFD864AA5
:1011A000864B1A602368864A13F4804F04D01221BC
:1011B000844811708149086042F20106334203F00D
:1011C000010103F400500FD044F62066794B1E80D5
:1011D00020B108237C481370784B186021B10C2390
:1011E0007A491370754B19601378794E043B53702C
:1011F00006F034F8774BDFF8289218606B79764D5B
:10120000052B04BF4FF4C872744BDFF8188208BF77
:101210001A8006F02FFE4FF47A72714B1A80002369
:101220002B6033602B68002B40F00481232706F0ED
:1012300015F803F049FA0A2006F037F8013FF6D115
:1012400003F0DEF9D9F800302B60D8F85C31336058
:10125000E8E742F6F8229AE742F6F822554B0001F9
:101260001A800A2390FBF3F000235E4AA0F5B060D9
:1012700042F823000133122BFAD1504A5A49402038
:1012800011604F4A137005F0F1FE002884D001234D
:10129000072790F90000554A8DE88800544B4021FB
:1012A00005F080FD003018BF012074E742F6F822F7
:1012B000404B40201A804F4A404B1A601022404B4E
:1012C0001A7005F0D3FE00283FF466AF0123002614
:1012D00090F90000484A8DE848004FF4E133DEE71A
:1012E00042F6F822334B40201A80444A334B1A60AE
:1012F0000822334B1A7005F0B9FE00283FF44CAFBA
:101300000023012190F900003D4A8DE80A004FF4C6
:10131000E133C4E742F6F8220C27264B39481A80FD
:10132000274B39491F700023384A062EDFF8F88012
:10133000DFF8F8C0DFF8F8E003700B7013701BD013
:101340001B2388F8003005234FF4E1368CF8007039
:101350008EF800302E4A194B40201A6005F086FEA8
:1013600000283FF419AF0122002390F900008DE816
:101370000C003346274A92E721238EF8006088F854
:1013800000308CF80070244EE4E700BFBC0E002053
:10139000C4180020C0180020DA1C0020781C00208F
:1013A000681C00207C1F00206507002068070020C3
:1013B0006C1C0020420A0020F5860008C8020020AC
:1013C000C8120020C5860008E5860008D5860008FA
:1013D000E8180020D4080020EC180020981F0020F6
:1013E000BC1F00204C1A002095860008018B0008C5
:1013F000A0860100818600085D8A000869860008D1
:10140000158A0008DA190020811B0020801B0020AB
:1014100085850008FD88000890D00300A01C0020EE
:10142000F0180020400B0020821B0020D91900205A
:10143000831B0020DFF8C4A100230F27D046DFF86C
:10144000C0912B6033604FF0050B05F007FF03F0F0
:101450003BF90A2005F029FFBBF1010BF5D103F0A0
:10146000CFF82A68D9F80030013F03EB0201326857
:10147000DAF85C3129601A443260E4D10F2092FB23
:10148000F0F23260484A91FBF0F11378296043F0A2
:1014900008031370454A137823F00203137040F6D3
:1014A000020223681A4209D0414A424B1A600322C1
:1014B000414B1A70414B1F80414B1F800122414B11
:1014C0009B682360404B1A7098F8003063F07F03EC
:1014D00088F8003000F096F83C4A3D4B1A603D4ACF
:1014E0003D4B1A604FF082423C4B1A601FB0BDE882
:1014F000F08F013B092B3EF66AAF4FF4804B14236B
:10150000C6F814B008258DF84A30022303993448F0
:101510008DF84B30ADF8485000F0D4FE049B3C20D1
:101520001D6105F0C2FEC6F810B0C3464FF4004876
:10153000FFF79AB994F8383143F0020384F8383150
:10154000FFF7A0BB012B4FF000093FF63DAB254B49
:101550001870FFF754BB42F21073A4F86031A4F87E
:101560006231214BC4F86431204BC4F86831204B00
:10157000C4F86C311F4BC4F870311F4BC4F8743180
:101580006CE4042105241A788154511CC9B24454D6
:10159000D11C197006210232D2B28154FBE402320E
:1015A0001A701322425424E59A1F0020EE1D0020D9
:1015B000AE0E00209C190020341C0020361C002098
:1015C000381C0020A00D0020280B00200000C04087
:1015D0006409002000004041600900205C090020EF
:1015E00000080140C4080020D592000809930008B3
:1015F000CB92000807930008D9370008400B002061
:10160000F018002029232DE9F04F724C4FF4C875D3
:1016100084F85C31012399B00021882084F85D3181
:10162000A4F85E5108F069FD4FF47A720023A4F823
:101630005221694A08A8C4F85821684AA4F85451AC
:1016400084F8F030C4F8D420236201F05FFD054631
:1016500080B98DF820008DF8210004F1100608AF44
:101660000FCF0FC60FCF0FC60FCF0FC697E80F00D3
:1016700086E80F006423A4F834314FF46173A4F8B2
:1016800036314FF4FA730126A4F838314FF4206351
:1016900031468020A4F83C3184F8506108F02DFDDB
:1016A00031460746FF2008F028FD00213843054356
:1016B000084608F022FD6DB206AF05433946912079
:1016C00008F0C6FC6DB29DF8183005433146002085
:1016D00084F83A3108F011FD6DB205430021FF2076
:1016E00008F00BFD6DB205430021802008F005FDD8
:1016F0006DB22843002540B2002840F0B881ABB25B
:10170000013B042B04D8DFE803F00B55585B610064
:1017100084F82860631983F828604FF0000B0AE012
:1017200004EB8503596B4420C1F34F2108F030FED0
:1017300083460028EED00135062D5846DCD1BBF19A
:10174000000F54D10222FE21602084F82AB084F8D0
:101750002BB008F0B9FE8346002848D184F82C004D
:101760001022EF21602008F0AFFE834600283ED112
:101770004FF49013636394F8293084F82D007BBBF9
:101780004FF48043A3634FF40C13E36394F82B30BE
:10179000002B40F06A81FF210120236484F830117E
:1017A00008F0ABFC0123834684F83231F8B984F8A1
:1017B00015B11CE084F82A60ACE784F82B60A9E737
:1017C0000022FE21602008F07FFEB1E70022EF2119
:1017D000F8E700BF0C1E0020856B0100A470090013
:1017E0002021442008F0D4FD83460028C8D0A34E11
:1017F00086F800B0BBF1000F40F0FC804022594653
:1018000008A80EF051FE94F8F090ADF80EB0B9F1C2
:10181000070F8DF80BB08DF80CB0CDF810B000F0BC
:10182000D5800121802008F068FC01210546FF20B9
:1018300008F063FC59460543584608F05EFC6DB25B
:1018400005430621FF2008F058FC6DB205430DF159
:101850000D01832008F0FCFB9DF80D106DB20543CF
:1018600041F00401832008F048FC6DB205430721D4
:10187000FF2008F042FC6DB201210543812008F0F1
:101880003CFC6DB205430A2005F00FFD01218020CC
:1018900008F033FC6DB2054319F001086DB240F059
:1018A000E8806B21942008F028FC824608F036FC82
:1018B0004AEA0000054305A9902008F04EFC6DB2ED
:1018C000059B242105439420C3F3062AC3F3C03BA0
:1018D00008F013FC6DB2054308F020FC6DB205431F
:1018E00005A9902008F039FC059B6DB21A0E8DF801
:1018F00018201A0C252105438DF8192094201A0A66
:101900008DF81A208DF81B3008F0F7FB6DB20543F7
:1019100008F004FC6DB2054305A9902008F01DFCF9
:10192000059B6DB21A0E05431B0C6DB28DF81C2081
:101930008DF81D300021812008F0DFFB06210543D2
:10194000FF2008F0DAFB6DB205430DF10D01832095
:1019500008F07EFB9DF80D106DB2054301F0FB0110
:10196000832008F0CAFB6DB205430121FF2008F077
:10197000C4FB6DB205430121002008F0BEFB6DB22F
:1019800005430021FF2008F0B8FB6DB2054300219C
:10199000802008F0B2FB6DB2284310F0FF0F15D184
:1019A000B8F1000F0ED184F813A184F814B104EB40
:1019B000080317F8082008F10108B8F1060F83F8AA
:1019C0002A21F4D149F0010984F8F09094F81481A7
:1019D000B8F1010F05D894F813914CD1B9F1200F4B
:1019E0004ED903A904A801F05DFA0546002800F0CD
:1019F0008C80357096F9003023B904A905A801F050
:101A000051FA307096F900303BB901220DF10D0109
:101A10000DF10E0001F0FCF9307096F900300BB9B1
:101A20002374337096F900301BB90122337084F8A7
:101A3000282096F9003053B9A16B4420C1F34F21FF
:101A400008F0A6FC10B9012384F82930307096F90B
:101A50000030002B40F0508194F82900002840F01D
:101A6000438141F69913A36345E1002393E683463E
:101A7000BDE6DA465EE7B9F10C0FB1E7B80C00201D
:101A80000121FF2008F039FB014688B94F2008F0FA
:101A900034FB68B92C214E2008F02FFB014638B9E1
:101AA000FF2008F02AFB18B9B421B62008F025FB66
:101AB000002384F8243184F8253184F8263184F811
:101AC000273184F8283184F82931B8F1000F00F06B
:101AD0000281824903F1B402920951F82220002ABE
:101AE00000F0BC817E4A0197CDF80090911D4046E0
:101AF00002F0FCFF054600287FF47BAF012384F849
:101B0000139184F8153184F8148194F85031002B26
:101B100040F0A981D4F84C0102F01AFF05460028D4
:101B20007FF467AF29460A2008F0E7FA0546002847
:101B30007FF45FAF0246EF21842008F0C5FC054624
:101B400000287FF456AF84F8DA0002F063FE054601
:101B500000287FF44EAF0121FF2008F0CEFA0DF1EE
:101B60000E018046842008F023FB294648EA00083D
:101B7000FF2008F0C2FA4FFA88F848EA000045B2A0
:101B8000002D7FF436AFBDF80E3008A81B01C4F855
:101B9000D43001F0BBFA054600287FF42AAF0DF1DE
:101BA0000B01092008F054FA054600287FF421AF04
:101BB0009DF80B304B4D03F001030DF1200E8DF815
:101BC0000B3084F83131BEE80F000FC5BEE80F00BE
:101BD0000FC5BEE80F000FC59EE80F0085E80F0097
:101BE0000DF10B01012008F033FA054600287FF4BF
:101BF00000AF9DF80B308DF818003946012084F8AD
:101C0000303108F025FA054600287FF4F2AE9DF841
:101C1000183003F0EF0843450CD04146012008F08E
:101C20006CFA054600287FF4E4AE606984F83081E0
:101C300002F02EFE0023394601208DF8183008F0FE
:101C400007FA054600287FF4D4AE9DF8183003F05B
:101C5000FB0843450CD04146012008F04EFA0546EA
:101C600000287FF4C6AE606984F8308102F010FE6F
:101C70004FF0030805A9002084F8328108F0B2FA79
:101C8000054600287FF4B5AE9DF8143005A9012063
:101C900084F8E83008F0A6FA054600287FF4A9AEDB
:101CA0009DF814303946404684F8E03008F0CFFA09
:101CB000054600287FF49DAE069B39460420C4F8F3
:101CC000E43008F0C4FA054600287FF492AE069B83
:101CD000C4F8DC308DE6434604E700BF8C090108F8
:101CE000301F00201C1E00200C21442008F050FB57
:101CF00000283FF4B6AE307096F900303BB94FF48F
:101D0000701348F2E800636302F0C2FD307096F988
:101D10000030002B44D15021572008F0EEF9082163
:101D2000562008F0EAF90346C8BB3946032008F0FC
:101D30008EFA0346B0B908A9022008F088FA0346D3
:101D400080B90821502008F0D8F9034650B9069907
:101D5000032008F035FB034620B90899022008F05B
:101D60002FFB0346122284F8E820C3B9606902F011
:101D70008FFD034698B90221012094F8305108F0F4
:101D8000BCF9034658B902F06DFD034638B929463F
:101D9000012008F0B2F9034608B984F830513370D5
:101DA00096F90070002F56D14821084608F0A5F991
:101DB0000821472008F0A1F903210546322008F048
:101DC0009CF907210543302008F097F96DB20543CF
:101DD0000121FF2008F091F96DB205432021302048
:101DE00008F08BF96DB205433946FF2008F085F9FC
:101DF0006DB2284343B26BBB08A9042008F027FA50
:101E0000034650B90621702008F077F9034620B93F
:101E10000899042008F0D4FA03460E2284F8E02042
:101E2000C3B9606902F034FD034698B9022101206C
:101E300094F8305108F061F9034658B902F012FDE8
:101E4000034638B92946012008F057F9034608B976
:101E500084F83051337019B0BDE8F08F2C2B3FF46B
:101E600041AE013336E6014856E600BF10000020BF
:101E700010F80A3C0133DBB20A2B00F80A3C07D900
:101E8000002310F8131C034A22F8113000F80A3C12
:101E9000704700BFB81A0020314A70B5136C9068C3
:101EA000194440F68C23081A98429160D060516022
:101EB000134639D9117892F94520914220D10A1F51
:101EC000082A1DD893F84620182A03DC013283F82B
:101ED000462001E083F8441093F9442091421BD13D
:101EE00093F84700C0B100201E4C1F4D824209DC10
:101EF00000241D480B2A0BDC20F812400132F9E7C0
:101F00000022E4E754F8046F25F810600130EDE793
:101F10001648027801320270012283F8472000221D
:101F200083F845101A7070BD92F84710B9B140F2AD
:101F3000DA51A0F2EF248C4208D811780B2905DC85
:101F40000B1D0131117042F8230070BD00221046B4
:101F500083F8472099180432302A0861FAD170BDFD
:101F6000500B00205C0B0020B81A00203A0700201C
:101F7000024A136C01330B4413647047500B00206A
:101F8000024B53F820301B6819807047501700200F
:101F9000074B53F82030A1F57A701A6819894FF46D
:101FA0007A73414391FBF3F189B21180704700BF0E
:101FB00050170020894B70B51A68908A80B2C1B260
:101FC000CE0739D5118821F400610904090C11806C
:101FD000118889B241F48061118000211971597909
:101FE00019B3997909B301219971D979022901BFEE
:101FF000118889B241F400611180197A41F0010120
:102000001182DA7993F90410013291420CD1002245
:102010009A715A7A32B119688A8822F4407212048D
:10202000120C8A8000225A7670BD197A01F0FE01E6
:102030001182FF221A71E4E78D073ED5BFF35F8F4F
:10204000D879C0B2012818D15979B1B19979A1B123
:10205000118821F480610904090C1180BFF35F8F9E
:10206000118B1188587289B241F4007111809188E6
:1020700089B241F480619180C3E7118BBFF35F8F18
:10208000D97902290FD1597969B1997959B1118852
:1020900021F480610904090C1180918821F4806188
:1020A0000904090CE7E7D9790329E0D15979002916
:1020B000DDD099790029DAD0EFE74C0751D501211D
:1020C00059725979002938D09979002935D0D979B0
:1020D00093F90400022911881ED921F480610904B2
:1020E000090C1180148ADD68E4B22C54C1B2108846
:1020F00080B240F400701080881C1871108A013181
:1021000049B2C0B26854918889B241F4806191802B
:102110001188CE05FCD474E789B241F400711180B6
:10212000148ADD68E4B22C54C1B2148A481C40B24F
:10213000E4B22C5403311971EAE7997909B9197C91
:1021400039B1118889B241F40071118019790131D6
:10215000F1E7118889B241F48071118001219971F0
:10216000D6E711F040011AD093F90460118ADD68B6
:10217000C9B2F4B2A955601C40B2DD79C11C8D42D0
:10218000187105D1918821F480610904090C9180AE
:10219000DA7990427FF435AF02341C7131E70506DD
:1021A0007FF52FAF93F90400441C0AD05C69411CF1
:1021B000205C49B21082D879197188427FF421AF2E
:1021C0006BE71971197E1182597900297FF465AF87
:1021D000D97900297FF415AF5FE700BFBC0C002060
:1021E00037B50F4B04465D686A4606211878A84744
:1021F000A0B19DF800209DF8013043EA022323801E
:102200009DF802209DF8033043EA022363809DF885
:1022100004209DF8053043EA0223A38003B030BDBB
:102220007C0C002013B50F4B04465B686A46062100
:102230003B209847A0B19DF800209DF8013043EA6B
:10224000022323809DF802209DF8033043EA0223F5
:1022500063809DF804209DF8053043EA0223A380A3
:1022600002B010BD7C0C002038B510F80E2C0446CE
:1022700050F8043C5AB9012220F80C1C00F80E2C2E
:10228000997A18680222BDE8384007F0D3B90025D2
:1022900030F80C2C20F80A1C891A89B220F8081C86
:1022A000074A10F80F0C22F8101004F80E5C2A46AA
:1022B000997A186807F0BEF904F8065C38BD00BFCB
:1022C000B81A00202DE9F04300234FF00F0E01262D
:1022D0000F8847FA03F2D20723D58C784FEAD30848
:1022E00014F0100F18BF91F8039003F0070504F0E5
:1022F0000F024FEA850550F828C018BF42EA0902CC
:102300000EFA05F92CEA090CAA4042EA0C02282C24
:1023100040F828200AD1C26806FA03F422EA04022F
:10232000C2600133102BD4D1BDE8F083482CF8D122
:10233000C46806FA03F22243F2E72DE9F743164692
:102340000546DFF890920A4699F81A40314600682F
:102350009846631C89F81A3006F0D7FF2B8901A92B
:10236000ADF8043018238DF80630022368688DF824
:102370000730FFF7A7FF95F80AE009F11C072401D1
:1023800027442A684946BEF10C0F43D8DFE80EF017
:102390000742424268424242A0424242D900138C64
:1023A000DFF8349223F001031B041B0C1384138CFD
:1023B000B2F804C0108B4A4520F073004FEA004089
:1023C0004FEA10409BB21FFA8CFC40F070003ED0E8
:1023D00009F500694A453AD009F540694A4536D0C1
:1023E00009F580694A4532D009F580694A452ED001
:1023F00023F0020343F00303A2F804C01083A2F801
:1024000034801384138B23F008031B041B0C43F04C
:10241000080313832B7B43B1B2F844306FEA434384
:102420006FEA53439BB2A2F8443013889BB243F047
:1024300001031380BEF10C0F00F2B980DFE80EF04B
:10244000B3B7B7B7BEB7B7B7C2B7B7B7C60023F011
:102450000E032CF4407C43F003034CF4807CCBE768
:10246000138CDFF8749123F010031B041B0C1384EE
:10247000138CB2F804C0108B4A4520F4E6404FEAB2
:1024800000404FEA10409BB21FFA8CFC40F4E04041
:1024900015D009F500694A4511D023F0200343F017
:1024A0003003A2F804C01083A2F838801384138B81
:1024B00023F400631B041B0C43F40063A9E723F01F
:1024C000E0032CF4406C43F030034CF4806CE8E7FC
:1024D000138CDFF8049123F480731B041B0C13840A
:1024E000138CB2F804C0908B4A4520F073004FEA79
:1024F00000404FEA10409BB21FFA8CFC40F0700085
:1025000016D009F500694A4512D023F4007343F44C
:102510004073A2F804C09083A2F83C801384938B8C
:1025200023F008031B041B0C43F00803938371E79B
:1025300023F460632CF4405C43F440734CF4805CFF
:10254000E7E7138CDFF8909023F480531B041B0CF7
:102550001384108CB2F804C0938B20F4005023F441
:10256000E6431B0400041B0C000C4A451FFA8CFCBC
:1025700043F4E04340F4405003D009F500694A4574
:1025800003D12CF4804C4CF4804CA2F804C093830B
:10259000A2F840801084938B23F400631B041B0C6F
:1025A00043F40063C2E70B1902F13400D8613846E6
:1025B00021448E840A6203B0BDE8F0830B1902F156
:1025C0003800F3E70B1902F13C00EFE70B1902F1B9
:1025D0004000EBE7BC0C0020002C014013B5104C70
:1025E00094F8DC20CAB90F4B1B68B3B11A681AB152
:1025F0000D49886902438A619A889868ADF8042079
:1026000002228DF8072004220DEB02018DF806202E
:10261000FFF758FE012384F8DC3002B010BD00BF84
:10262000BC0C0020880C00200010024070B504464D
:10263000FFF7D4FFB4F5807F3DD0BB2C3DDC612C8F
:102640003DDC292C3DDC132C3DDC092C3DDC002C31
:102650000CBF002506251E4C8021A3686B209847DF
:10266000642004F022FEA3680721682098476420B4
:1026700004F01BFEA36800216B209847642004F03F
:1026800014FEA36818211B209847A36810211C2062
:102690009847A36829461A209847A36804211D205B
:1026A0009847A368002119209847A3681221BDE824
:1026B0007040372018470025CDE70125CBE70225DC
:1026C000C9E70325C7E70425C5E70525C3E700BF1C
:1026D0007C0C002008B5FFF781FF4FF48052014BBE
:1026E0001A8008BDF6020020012828BF01202DE92C
:1026F000F04F4FF0140E06460EFB00F3704FDFF85C
:10270000D881F918F8586F4B88F8DD60DC690A69E0
:10271000C8F800002243DA6182880D8922F44072F1
:102720001204120C82800222B1F80AA04C6889B00F
:1027300045EA0A09C4F8109003A920460193ADF8B0
:102740000C908DF80F208DF80EE0FFF7BBFD019B7C
:1027500000974FF0080B1F46A268154200F0A280B8
:102760000A20656104F096FD25610A2004F092FDBF
:10277000BBF1010BF0D1C4F814A00A2004F08AFDCB
:1027800065610A2004F086FD25610A2004F082FDBF
:102790000222C4F810A08DF80F201C2203A92046A5
:1027A0008DF80E20ADF80C90FFF78CFDD8F80040A6
:1027B000454A03A894423A690BBF42F4001242F41E
:1027C00080023A613A610BBF3A693A6922F4001219
:1027D00022F480023A61A38823F440731B041B0C8B
:1027E000A38023889BB243F001032380A58806F0D1
:1027F000D6F9059B354A364825F03F05B3FBF0F086
:10280000B3FBF2F3002B08BF01232D042D0C05436D
:10281000ADB2A58021884FF4967221F00101090420
:10282000090C21804FF47A716FEA4343424392FBD3
:10283000F1F26FEA534301329BB292B22284A38336
:10284000238800259BB243F0010323802388009A4C
:1028500023F4816323F002031B041B0C23804FF439
:10286000804323811423012403FB0626737B03A8E2
:102870008DF80C308DF80D508DF80E508DF80F40FE
:1028800007F0C8FB337B9DF80F208DF80C308DF8D6
:102890000D508DF80E504AB103A807F0BBFB09B0EC
:1028A000BDE8F08F0A2004F0F5FC55E75A09094904
:1028B00003F01F0304FA03F3203241F82230EEE75D
:1028C0004C0901080010024000540040804F1200E3
:1028D00040420F0000E100E0BC0C002010B5214C8C
:1028E0002368998A89B211F4706F1CBF012284F8A1
:1028F000DE2011F4E06F1FD01A8B9A88890522F42C
:1029000080624FEA02424FEA12429A8014D41A8837
:10291000920511D41A88D00518D51A88D105FCD48F
:102920001A8892B242F400721A801A889205FCD476
:1029300094F8DD00FFF7D8FE2268938A23F47063D1
:102940001B041B0C93820023637610BD1A8892B27D
:1029500042F400721A809A8822F440721204120C17
:102960009A80E9E7BC0C0020064A08B513880133B9
:102970009BB21380044B93F8DD00FFF7B5FE0020F7
:1029800008BD00BF34130020BC0C002010B4400070
:102990001A4CC0B22072217601200021217460718E
:1029A000E27160762068E360636184F8DE1018B33A
:1029B00083889B0515D40388D9050DD447F230537D
:1029C0000288920503D5013BFAD110BCCCE70388FD
:1029D0009BB243F48073038083889BB243F44073BB
:1029E000838047F23053627E12B1013BFBD1ECE7AA
:1029F00094F8DE0080F0010010BC7047BC0C002091
:102A000013460A4601466820C0E710B440001B4C3C
:102A1000C0B2207221760120002120746171E27120
:102A2000607620686361E36084F8DE1018B3838801
:102A30009B0515D40388D9050DD447F2305302887D
:102A4000920503D5013BFAD110BC8DE703889BB2F8
:102A500043F48073038083889BB243F44073838084
:102A600047F23053627E12B1013BFBD1ECE794F8A0
:102A7000DE0080F0010010BC704700BFBC0C0020DD
:102A800007B502AB03F8012D0122FFF7BEFF03B02B
:102A90005DF804FB37B504466B46012202210C2089
:102AA000FFF774FF10B9002003B030BD9DF800306F
:102AB000DA07F8D56B46072203210C20FFF766FFE3
:102AC0000028F0D09DF806309B07ECD19DF801302E
:102AD0009DF80000174D40EA032000B208F0E2FF25
:102AE000296809F033F809F00DFA9DF803302080C9
:102AF0009DF8020040EA032000B208F0D3FF6968A5
:102B000009F024F809F0FEF99DF8053060809DF881
:102B1000040040EA032000B208F0C4FFA96809F0ED
:102B200015F809F0EFF90122A0800A210C20FFF727
:102B3000A7FFB9E70401002013B500220A210C20E9
:102B4000FFF79EFF142004F0B0FB0F220A210C2097
:102B5000FFF796FF0A2004F0A8FB01AB0322102127
:102B60000C20FFF713FF0A2004F09FFB9DF90400DF
:102B700008F098FF4FF0864108F0DEFE4FF06E51EE
:102B800008F0E4FF4FF07E5108F0D8FE254908F028
:102B9000DDFF254C20609DF9050008F083FF4FF014
:102BA000864108F0C9FE4FF06E5108F0CFFF4FF09C
:102BB0007E5108F0C3FE1B4908F0C8FF60609DF914
:102BC000060008F06FFF4FF0864108F0B5FE4FF0A9
:102BD0006E5108F0BBFF4FF07E5108F0AFFE114977
:102BE00008F0B4FF0022A0600A210C20FFF748FF84
:102BF0000A2004F05AFB0DF10303012202210C20EC
:102C0000FFF7C4FE0DF10303012209210C20FFF799
:102C1000BDFE01220A210C20FFF732FF012002B085
:102C200010BD00BF0000F041040100200A4601462B
:102C3000682025E7FFF7BEB9FFF7BCB94EE64DE6C1
:102C400050B10023013830F0FF019AB203F10103C3
:102C500003D100EB022080B270474008F3E7014641
:102C60004FF0804210B58A4202D8002012B910BD40
:102C70009208F8E78418A1424FEA500326BFD01803
:102C8000091B18469208F1E737B5144B93F8DA3070
:102C9000013B022B1FD80DF106010E2007F088FA28
:102CA0000F4CBDF8065004EA454590B90DF10601F8
:102CB0000C2007F07DFAB5F57F0FBDF8063004D87B
:102CC00004EA4344B4F57F0F03D910B9054801F075
:102CD0003FFE03B030BD0020FBE700BF0C1E00200C
:102CE0000000FE1F1001002037B52D4C012180206F
:102CF000257C07F002FA0121FF2007F0FEF90021F0
:102D0000084607F0FAF994F83A11912007F0F5F91E
:102D10000121002007F0F1F90021FF2007F0EDF973
:102D20000021802007F0E9F9012D26D004D3032DDE
:102D300030D06FF0070014E00121002007F0DDF92A
:102D400001238DF8073060B9044644F620659DF8EC
:102D500007300134DB070BD550B9AC4203D16FF01B
:102D6000060003B030BD0DF1070107F071F9EEE781
:102D7000AC4208BF6FF00600F3E708B9FFF784FF25
:102D80000221002007F0B9F90028EAD1042384F8D1
:102D90003231E6E708B9FFF777FF0421F1E700BF1A
:102DA0000C1E002070B5194C88B00646C0210120C9
:102DB00094F8305107F0A1F930BB2074FFF794FF6D
:102DC00010BB07F081F9F8B9032301A884F8323168
:102DD00001F0ECFEC0B901F01DFDA8B90121FF20F2
:102DE00007F08BF980B93146B62007F0E1F958B900
:102DF0000146FF2007F081F930B92946012007F08C
:102E00007CF908B984F8305108B070BD0C1E002060
:102E10002DE9F3410F4601210023214C804608464D
:102E2000154694F830618DF8073007F066F90246D0
:102E300078BB402001F016FD024650BB012D28D181
:102E400003462A460DF10701404601F09DFC02466B
:102E5000DAB90221012007F050F90246E8B901F081
:102E600001FD0246C8B9012D17D12B4639460DF197
:102E7000070001F089FC02463AB93146012007F00B
:102E80003CF9024608B984F83061104602B0BDE84A
:102E9000F081002388F80030DAE700233B70EBE78D
:102EA0000C1E002000232DE9F04F944D8DB00590AD
:102EB0008B46FF200121089309938DF81C308DF873
:102EC0001D30B5F83C8185F8243185F8253185F829
:102ED000263185F8273185F8283185F8293107F022
:102EE0000CF90446002840F0028101464F2007F00B
:102EF00004F90446002840F0FA802C214E2007F007
:102F0000FCF80446002840F0F2800146FF2007F05C
:102F1000F4F80446002840F0EA80B421B62007F017
:102F2000ECF80446002840F0E2800146802007F0DB
:102F3000E4F80446002840F0DA8002460DF11D0155
:102F400007A8FFF765FF0446002840F0D080032360
:102F50000CAF47F8100D0197009305F592720346E8
:102F600005F5957101F0C2FD05F59279044600283A
:102F700040F0BD800DF11E00089EFFF713FF0446D0
:102F8000002840F0B480BDF81E30434551D95C4A5A
:102F900085F8240185F8250185F8260185F82701A3
:102FA00085F8280185F8290106F1B4039B0952F838
:102FB0002330002B39D001970327524A009733461C
:102FC000911D012001F092FD68BB0DF11E00089ECD
:102FD000FFF7E8FE38BBBDF81E30434540F28B805A
:102FE00001204FF0010A27E099E8030001360A901A
:102FF000ADF82C100493039F31E0039F5FFA8AF031
:10300000059B1F6001238BF8000085F81531059B97
:103010001B6885F813319BF8003085F8143166E0A1
:103020006FF0310463E0044661E02B2EC3D8013613
:10303000BAE7002007468246BDF81E309845DFD922
:1030400099E803000327A3EB0803002BB8BF5B42FA
:1030500004932D4B0A90ADF82C10A3F106093146CC
:1030600009AA294801F00AFD099E731CD8D006F16F
:10307000B403234A9B0952F82330003318BF0123BD
:103080005345BBD17B1C0393F308052B06F00701C6
:10309000C6D8012202FA01F113F8092019480A439F
:1030A00003F8092001F011FD0028BCD10DF11E002C
:1030B000FFF778FE0028B6D1BDF81E20A2EB08036A
:1030C000002BB8BF5B4290458ED2049A934294D9AC
:1030D0000AAE304601F0F9FC034696E803000A4ABE
:1030E000C9F8000022F8021C002B87D01C4620469D
:1030F0000DB0BDE8F08F074673E700BF0C1E00203F
:103100008C090108301F0020361F00202DE9F043F4
:10311000654E87B0337C0446037003A9F82007F09E
:1031200047F8054610BB04A9042007F016F8054629
:10313000E0B9BDF80C201AB1049BB3FBF2F3A36015
:10314000A36804A9B36100232020237307F030F89B
:10315000054658B9BDF8103063B9326A226104A936
:103160002820337707F024F8054640B1284607B0F9
:10317000BDE8F083DB00236133620123EFE7FA222D
:103180000027BDF8103004F12408C3F30B03B3F596
:10319000006F28BFA3F58053534304F118096361FE
:1031A0004146B8B201F030FC05460028DED1F319E3
:1031B00093F828300137062F09F8013B08F104087D
:1031C000EED104A9012006F043FF05460028CDD129
:1031D0009DF8103086F830311B064ABF012384F871
:1031E0003C0084F83C3094F83C3004A886F84C301D
:1031F0004FF4FA6302930023039340F6363363607F
:1032000007F009F805460028B0D19DF810302BB919
:103210009DF8113013B99DF81230C3B102A90220F4
:1032200007F015F800283CD19DF810302BB1029B17
:1032300003F24E226368134463609DF81230D3B1E9
:10324000029B03F2B222636803EB420363609DF8C2
:10325000133053B103A9032006F0F9FF039B03F5D4
:103260002572636813446360D8B99DF8143063B95C
:10327000636873617AE79DF81130002BE7D0029BF9
:1032800003F5257263681344E0E701A9042006F002
:10329000DEFF019B03F2262263681344636000286B
:1032A000E6D0054662E700BF0C1E002073B5054658
:1032B0000124002601220021006806F026F82A6871
:1032C00001A813889BB243F001031380EB7A8DF8B9
:1032D00005408DF804308DF806608DF8074006F043
:1032E00099FEEB7A1B2B0BD1192301A88DF8043022
:1032F0008DF805408DF806608DF8074006F08AFECF
:1033000002B070BD10B5124C1222002104F5BE703F
:103310000DF0CAF8052384F8823184F8843184F8EA
:103320008A3184F88C31012300220421A4F88031F1
:10333000522384F87E2184F8831184F8852184F84F
:10334000862184F88B1184F88D2184F87C3110BD9E
:10335000A00D00200D4B03F1D002C3F81C25C3F8CB
:10336000201500F1500302781AB98178C278914291
:1033700009D304309842F6D10023054A83F00103B3
:1033800082F8B63170470123F7E700BFA00D002097
:103390001001002007B51C4B03F5A562C3F82425D6
:1033A00093F8242132B3012A0AD1032183F82A1584
:1033B000072183F82C250C2283F82B1583F8282568
:1033C000124A134B4020C3F8B82103F04FFE70B1EE
:1033D0000122002390F9000040218DE80C004FF4F9
:1033E000E1330C4A03F0DEFC003018BF012003B0CB
:1033F0005DF804FB022183F82A15032183F82C25AC
:1034000083F82B150722D9E7A00D00203D86000880
:1034100010010020CD8900082DE9F04F1E46002341
:1034200017469D4D8BB08046242085F82D3502F03F
:1034300040FC442002F03DFC3A46334638463146D3
:1034400008F0F0F92C46002800F0EA8040460DF024
:10345000EDF80C30C4B2204602F02BFC95F82D0597
:103460004440404685F82D4505F070FB092002F0E8
:1034700020FC95F82D35894883F0090385F82D3512
:10348000FEE04FF06042864B3846314608F0C0F906
:1034900038B94FF06042834B3846314608F09AF90C
:1034A00010B340460DF0C2F80930C5B2284602F00C
:1034B00000FC94F82D054540404684F82D5505F054
:1034C00045FB092002F0F5FB94F82D35764883F092
:1034D000090384F82D3505F039FB94F82D0502F029
:1034E000E8FB0BB0BDE8F08F0022002338463146E0
:1034F00008F070F9002800F091804FF0010906F102
:10350000004663A3D3E900233846314607F03EFD69
:103510000F46064608F09CF9054607F073FE024682
:103520000B463046394607F02FFD002306460F466E
:103530000A220DF1280A0AF8043DB5FBF2F302FB5A
:10354000135530350AF8015D1D46002BF5D1404674
:103550000DF06CF8834650460DF068F809F105054A
:103560005D440544EDB2284602F0A3FB94F82D0516
:103570004540404684F82D5505F0E8FA092002F050
:1035800098FB94F82D3583F0090384F82D35B9F1B3
:10359000000F08D02D2002F08CFB94F82D3583F01D
:1035A0002D0384F82D3550464FF000084FF0040AE3
:1035B00005F0CCFA2E2002F07CFB94F82D35DFF8D4
:1035C000F49083F02E0384F82D350AF1FF3A1AF0B7
:1035D000FF0A82D042464B463046394607F088FE05
:1035E0000F46064608F034F9C5B2092D94BF3035B0
:1035F0003735EDB2284602F05CFB94F82D352846AD
:103600006B4084F82D3507F00DFE02460B46304620
:10361000394607F0B9FC06460F46D6E7814670E703
:1036200026F000494FF0FF32204B3846494608F05B
:10363000F9F800287FF425AF4FF0FF321B4B3846D6
:10364000494608F0D1F800287FF41BAF40460CF043
:10365000EDFF0830C4B2204602F02BFB95F82D0593
:103660004440404685F82D4505F070FA092002F0E7
:1036700020FB95F82D350E4883F0090385F82D358C
:1036800005F064FA95F82D0529E700BFAFF3008037
:10369000FCA9F1D24D62403FA00D0020800C010832
:1036A000FFFFEF41FFFFEFC1770C0108FFFFEF7F46
:1036B0006E0C0108000024400021012001F08EBDA5
:1036C0002DE9F041424CD4F83025F2B1D4F834352C
:1036D00004F23E569B1A3F4A04F2445593424FF07F
:1036E00000033FD804F5A76030F9132036F91370B2
:1036F000590097426F5EC8BF26F81320974203F126
:103700000103B8BF6A52032BEED194F850353BB396
:10371000B4F83A35B4F80421B4F802119B1AB4F89D
:103720000A215343B4F8062118B2B4F83C359B1A69
:10373000B4F80C215343B4F838251BB2521AB4F82C
:1037400008114A430A2112B292FBF1F293FBF1F302
:10375000A4F8382590FBF1F2A4F83C35A4F83A25FA
:10376000BDE8F08104F24A574FF002083846C4F829
:10377000303504F5807C36F913E035F913200EEB73
:10378000020191FBF8F1A2EB0E0202EB820227F894
:1037900013200133032B2CF8021FECD1B4F94C2574
:1037A000B4F94A350A211344B4F94E2513440022D2
:1037B0005943835EA51803EB430391FBF3F30232F5
:1037C000062AA5F80831F4D100F0ACFC9DE700BF53
:1037D000A00D00207FC3C9012DE9F04F1E46002730
:1037E000864600208C46614987B04B890C894FEA98
:1037F000032AB6EB0A0A67EB000BA4FB0A6704FB7B
:103800000B77B1F80480F40944EA47644FEA0846AC
:103810000592A219CC884FEAE715A4FB0A6704FBBE
:103820000B77B1F802804FEA162444EA07644FEAA6
:10383000C83645EB000314EB06084FEA272545EB95
:1038400000098889CDE90223A0FB0A4500FB0B553E
:10385000E00D40EA452010F5FA634FEAE55141F1E9
:103860000004B3F5FA6FCDE9003474F100035DDABA
:103870000523A0FB034503FB015504FB01F300FBFB
:103880000533A4FB00451D446F104FEA3406DDE903
:103890000223921B4FEA940663EB070346EA857600
:1038A000AF104FF0FF35324CB8EB0608CDE90223DC
:1038B000DDE9002369EB0709A242AB4123DA40F6B8
:1038C000AC5400250019694100FB01F3A0FB000185
:1038D00001EB4301CD00C400041B45EA507561EBC8
:1038E0000505DDE9022312196B41CDE902230B2303
:1038F000A0FB034503FB01556D104FEA3404B8EB00
:10390000040869EB05090AFB0BF3AAFB0AAB0BEBF6
:10391000430B4FEADA7040EA4B00DDE900344FEA2E
:10392000EB711B1A64EB0104CDE90034059BA3FB8A
:10393000080103FB0911DDE90234460D46EAC12600
:10394000F31A4FEA615767EB0404DB0B43EA444385
:10395000BEF1000F01D0CEF80030BCF1000F02D054
:10396000009BCCF8003007B0BDE8F08F8C0C002035
:1039700024FAFFFF002003F007BD80EAE073A3EB09
:10398000E0738B4206DB002801DD401A704702D04D
:10399000084470470020704770B5044608F0B2FA3A
:1039A0002030402859D82E4E2E4D3146204608F062
:1039B00089FA60B92C4E2B4D3146204608F064FA46
:1039C00058B12046294607F0B9FF0446F4E72046DF
:1039D000294607F0B1FF0446E7E72449204608F0EE
:1039E00071FA00282CD02149204607F0A5FF014696
:1039F0001E4807F0A1FF04462146204608F0A6F81D
:103A000005461B4908F0A2F81A4907F095FF294618
:103A100008F09CF8184907F091FF294608F096F83D
:103A2000164907F089FF29460646204608F08EF819
:103A30000146304608F08AF8214607F07FFF70BD46
:103A40000F49204608F020FA0028D5D00749204623
:103A500007F074FF01460A48CBE7002070BD00BFA5
:103A6000DB0F4940DB0FC940DB0F49C0DB0FC93F0B
:103A70009A7C2E36FAAF4F393587083CA4AA2A3EE5
:103A8000DB0FC9BF08B5034907F058FFBDE8084080
:103A900082E700BFDB0FC93F2DE9F04F056885B015
:103AA000814628460C46FFF7EDFF80462846FFF783
:103AB00073FFD9F8045006462846FFF7E3FF074690
:103AC0002846FFF769FFD9F8089005464846FFF7F2
:103AD000D9FF82464846FFF75FFF51468146404680
:103AE00008F034F849460190404608F02FF8514656
:103AF0000290304608F02AF849460390304608F014
:103B000025F851468346384608F020F8494620609B
:103B100007F1004008F01AF803996060A560284694
:103B200008F014F8029907F009FF5946E0602846AA
:103B300008F00CF80146019807F0FEFE39462061B6
:103B400006F1004008F002F801996061284607F08C
:103B5000FDFF0146584607F0EFFE0299A061284696
:103B600007F0F4FF039907F0E9FE3946E0614046AB
:103B700007F0ECFF206205B0BDE8F08F2DE9F041C1
:103B800004468AB02768084601A96668A568FFF759
:103B900083FF0199384607F0D9FF049980463046E3
:103BA00007F0D4FF0146404607F0C8FE079980465B
:103BB000284607F0CBFF0146404607F0BFFE0299BA
:103BC0002060384607F0C2FF05998046304607F06E
:103BD000BDFF0146404607F0B1FE089980462846E1
:103BE00007F0B4FF0146404607F0A8FE0399606065
:103BF000384607F0ABFF06990746304607F0A6FFA8
:103C00000146384607F09AFE09990646284607F00D
:103C10009DFF0146304607F091FEA0600AB0BDE866
:103C2000F08110B5054C228822EA000082422080F3
:103C300002D0012003F0F6FA208810BD3C130020CA
:103C400010B5054C228810438242208002D001200A
:103C500003F0E8FA208810BD3C130020024A936864
:103C600023EA000090607047A00D0020024A93688C
:103C700018439060704700BFA00D002038B50F4C6E
:103C80001925206803F038FA002220680C4C072A16
:103C90000ED002FB02F3A3F11901037A4B4303F6A2
:103CA000C413534393FBF5F324F812300132EEE7CB
:103CB0000449BDE8384003F0E1B900BF001D002011
:103CC00078090020700E002010B5104B1A786A2A6F
:103CD0001AD140F21C525988914215D11A79BE2A44
:103CE00012D193F81A25EF2A0ED10022084C13F8AE
:103CF000010B80EA0201A342C9B203D1831A5842E0
:103D0000584110BD0A46F2E7002010BD00F8010836
:103D10001CFD01082DE9F74305F042FA6A234A4EDB
:103D200040F21C513370BE233371EF2386F81A35ED
:103D300000231846718086F81B35F25C01338B42F4
:103D400080EA0200F9D186F81B05042700203F4CC9
:103D50003F4BDFF80491636003F188336360013FF8
:103D600017F0FF0739D034233A4DE36005F1784866
:103D7000A8F5FC38C8F30903002B3BD000234FF40F
:103D8000005056F80880019304F0F8FE0428E6D1AC
:103D900023694FF4005043F0010323611FFA88F3B5
:103DA0002B8004F0EBFE042842D1AB1C0193019B55
:103DB0004FEA1848A3F800804FF4005004F0DEFEEC
:103DC0002369042823F001034FEAC3434FEAD34396
:103DD0002361C4D104354D45C8D11C4A0428136958
:103DE00043F08003136102D1FFF76EFF38BB04205C
:103DF00003F065FA4FF4302004F0C0FE0428AED181
:103E000023694FF4302043F0020323616561236985
:103E100043F04003236104F0B1FE2369042823F03A
:103E200002034FEAC3434FEAD3432361A6D096E788
:103E3000236923F00103DB04DB0C23618FE705F02A
:103E400099F903B0BDE8F083A00D002000200240E6
:103E50002301674500F801081CFD01082DE9F04128
:103E6000FFF732FF10B9032003F029FA924C05F056
:103E700097F940F21C529149204606F0FDFF94F854
:103E8000F4344FF48E71022BC4BF002384F8F43451
:103E900094F8F4248A4D01FB02F303F5D07020441A
:103EA0002344286093F8F40101FB02420228C4BFB6
:103EB000002083F8F40192F8F431824A13700C2246
:103EC00002FB0343804A03F2F643136046F2090201
:103ED000A3681A4200F0E880A368D80703D54FF41E
:103EE0000050FFF7BBFEA368590409D50820FFF76F
:103EF000B5FE4FF40050FFF7B1FE0120FFF7AEFE14
:103F0000A3681A0706D54FF40050FFF7A7FE01205B
:103F1000FFF7A4FEA3689B0412D54FF40040FFF7FF
:103F20009DFE94F81831012B03D14FF40060FFF788
:103F300095FE4FF48030FFF791FE4020FFF78EFE94
:103F400094F872312BB194F8763113B1002384F8D0
:103F500076310020FF2702465C4E5D4B1E60231821
:103F6000B3F880114B1003F077334FEAA10C0CF03B
:103F7000333CCB1AA3EB0C034FEAE10C0CF0113CE1
:103F8000A3EB0C0303EB231303F00F3393FBF7FCBA
:103F900011F0010ECCEB0C2C18BF0132A3EB0C037B
:103FA00018BFD2B2012B08DD022B40F08280BEF197
:103FB000000F7ED011F0BC0F7BD008301028CED17E
:103FC000013A012A75D8FFF759FE302200214148F5
:103FD0000CF06AFA2968404F01F17900FFF7BAF94D
:103FE0003E4BA7F126081F602B68187803F060FC91
:103FF0003B4B07F174021A60642294F86A11394B42
:104000004A43C8325A6000229A60DA601A615A61E3
:104010009A61DA6183F8202083F82120324BBA1D9F
:104020001A60324BA7F11E021A60314B8037C3F879
:104030000080304BB4F8F2001F602F4B1E6007F079
:104040002DFD2E4E7060B4F8F40007F027FD2D68AA
:10405000B06095F85C3005F16402337095F8783003
:10406000B5F81601737094F875313373244B1E60E4
:10407000244B1A6007F016FD0146234807F01AFE8C
:10408000224907F063FD224B05F211121860214B03
:104090001D60214B1A60214BC3F80080204B1D602E
:1040A000BDE8F04105F066B84FF40050FFF7DEFDC3
:1040B00012E7FFF727F986E7A00D002000F80108B6
:1040C0007C1F0020FE1C0020001D0020BC0E0020D4
:1040D000681C0020A81C0020960E00206408002008
:1040E000BC180020781C0020401C0020380A00204A
:1040F0003C0A0020600A0020240B0020F41200205B
:104100002C18002068180020000061444C3D0F442A
:104110005C0A00207C190020A41F0020B01F002092
:10412000DC1D002008B5FFF7F5FDFFF797FEBDE8A1
:104130000840012003F076B82DE9F74FEF4C40F22C
:104140001C52002120460CF0AFF90021EC4B04F585
:10415000D0721A60EB4B04F2F6421970EA4B4FF43E
:1041600080401A606A23237003236371FFF77EFD8A
:104170004FF40060FFF77AFD0220FFF777FD4FF460
:104180008070FFF773FD4FF41673A4F8F230FA2332
:10419000A4F8F4302A23A4F8F030C823A4F8FA30A5
:1041A000012384F8EE3084F810312B2384F8113188
:1041B000232384F81231242384F81331102320227E
:1041C000A4F816311E2384F8F620A4F814310D2229
:1041D0004FF4AF7384F80E21A4F81A310A22022397
:1041E00084F80F2184F818310522002384F8F41490
:1041F000A4F8FE10A4F8FC10A4F8001184F8E41050
:1042000084F8E51084F8E610A4F8E810A4F8EA10A1
:10421000A4F8EC1084F8EF1084F8F71084F8F81084
:1042200084F8911184F89011C4F89431C4F898314D
:1042300084F89F2140F2DC52A4F82A2140F24C423B
:10424000A4F82C2140F26C72A4F82E2140F27532B1
:10425000A4F8302140F64302254684F89C1184F8E6
:104260009D1184F89E1184F8241184F82511A4F876
:10427000322100930329CCBF0123002384F8343179
:1042800014BF1E2305230131122984F8353104F1AE
:104290000204EFD14FF47A73A5F85831A5F85C31D8
:1042A000A5F86031A5F86431A5F8D43040F27E530A
:1042B000A5F8D83040F2EA531922A5F8DA3040F2D6
:1042C000B45301274FF4FA614FF0320985F8752194
:1042D00040F24C40C82240F2DC5A00264FF01E0B40
:1042E0004FF00508A5F8DC3044F25063A5F85A11E8
:1042F000A5F85E11A5F86211A5F8661185F876712A
:1043000085F87771A5F87821A5F8D000A5F8D21026
:10431000A5F8DE90A5F8D6A085F827B185F8297113
:1043200085F8737185F8748185F87A71A5F8E030A5
:10433000A5F8E29085F8266185F8286185F868611E
:1043400085F872610192FEF7DDFF40F6AC53AB8158
:104350006B4B09201C684FF00A0E2323019AAE73A1
:104360002621E3722373227150234FF00202E07181
:1043700084F812E00C204FF0640E6170A170E370BD
:10438000462128232274E07604225A2084F81CE077
:104390004FF0780C84F814E04FF4FA7E84F815B0EE
:1043A00084F816B0617384F8178084F818B06371CC
:1043B000A37184F811802072637284F80AC0267099
:1043C000A673E6736676A276A777A4F84EE0DFF8C8
:1043D00050E1DFF850C1C4F838E0C4F83CE0DFF841
:1043E00048E1C4F82CC0C4F828E04FF07E5EC4F861
:1043F00030C0DFF838C14FF07F5BC4F848C04FF0E1
:104400004B0CC4F834E0DDF800E084F84CC0C4F88C
:1044100040E0DFF81CE184F8506084F8516084F8D3
:104420005260C4F820B0C4F824B0C4F844E084F862
:10443000536085F8F604412085F8F89485F8F70470
:1044400085F8FB1485F8F96485F8FD6485F8FE6449
:10445000A5F800A585F8FA6485F8FC641021032509
:10446000A4F8586084F87A50A4F85A6084F8796007
:1044700084F87B1084F8643084F86530152384F860
:104480007E5084F881504FF0020520204FF0300C10
:1044900084F868301D4B84F88250E3661C4B1D4D38
:1044A00023671D4B84F87D7084F87870DFF84C909A
:1044B0001A4F84F8898084F87C0084F87F6084F83F
:1044C00080C084F8831084F8840084F8852084F800
:1044D000866084F8876084F8881084F88A6084F89D
:1044E0008B1084F88C00A4F8566084F85C20C4F823
:1044F00060E0636705F108081CE000BFA00D002024
:104500007C1F0020FE1C0020001D00209A99193FEE
:10451000F6287C3F740901081F856B3F8D0C01084C
:104520008FC2F53CCDCCCC3E000020400000404086
:104530000000A040F15D00294AD1502384F81231D7
:1045400028230A2284F813314FF44873264D84F847
:10455000111184F8141184F81811A4F8163140F2DE
:10456000145085F86A21C822A5F86C0185F86B21E2
:1045700085F86E11A5F870216B18009A1031C029CA
:104580001A61F9D121464FF48E72184806F074FC76
:1045900021464FF48E72164806F06EFC154B1A68D1
:1045A000154B1168C5F802155168596091689960FA
:1045B0001168C5F80E155168196191685961012398
:1045C00085F81033022385F82C3403B0BDE8F08F52
:1045D0000A480BF0B7FF28B140453EBF401B484496
:1045E00080F81C610136A5E7A00D00205C100020BA
:1045F00078110020001D0020A2120020740901087B
:104600000E4938B50C7C6CB18A694B69086AB3FBFA
:10461000F2F3CA69B2FBF0F200200874C861486185
:1046200008628861064907484D690749A8471CB1D7
:10463000064B1A68064B1A6038BD00BFF412002002
:10464000A00C0020F01800209C0C0020A01C0020D2
:10465000E0180020154938B54C6A154D041BAC42D2
:104660001ED90C7C48628CB14A698B69086AB2FB1E
:10467000F3F3CA69B2FBF0F29BB98B6A9AB9CA6AC2
:1046800000200874C86148610862886109490A48C5
:104690004D690A49A8471CB1094B1A68094B1A60B1
:1046A00038BD8B62EAE7CA62EAE700BFF412002075
:1046B0009F860100A00C0020F01800209C0C002018
:1046C000A01C0020E018002038B52D4C236BC01A28
:1046D00000280DDB002594F834302563012B25D00C
:1046E00007D3022B44D002F0B9FD236B184420639A
:1046F00038BD244DAB68984758B163691844A36925
:1047000060610133202BA36101BF10234008606169
:10471000A361A36B0133A363EB689847012384F87B
:1047200034306B88226B13442363DCE7154D2B690F
:10473000984758B1E3691844236AE0610133802B3C
:10474000236201BF40234008E061236201232374F8
:10475000A36B0133052BA36307D16B689847002334
:10476000A36384F834302B88DCE7EB689847FAE7DA
:10477000044B5B689847A56384F83450B3E700BFE7
:10478000F4120020A00C00202DE9F7434FF000099F
:1047900007460D46FF20012190461E468DF80790E2
:1047A00005F0ABFC49460446484605F0A6FC4946E0
:1047B0000443FF2005F0A1FC64B2044364B2B8F1E5
:1047C000000F05D03946CB2005F042FC044364B20B
:1047D00036B10DF10701EE2005F03AFC044364B256
:1047E0000121FF2005F089FC01210443002005F090
:1047F00084FC64B204430021FF2005F07EFC64B217
:104800009DF80730204323F0100340B22B7003B013
:10481000BDE8F08337B5002501210B2005F06DFCC4
:10482000002104460B2005F068FC0DF1070104434C
:10483000132005F00DFC9DF8073064B220430135CC
:104840005B0740B2EDB205D0032D08D00028E3D0BD
:1048500003B030BD032D08BF6FF00B00F8E76FF019
:104860000B00F5E740F0010108B5002005F045FC1C
:10487000014658B905F028FC014638B9FFF7CAFFD0
:10488000014618B9BDE8084005F037BC084608BD28
:104890007FB500234FF4FA628DE80C0044F61F63E5
:1048A0009842064604D86FF00305284604B070BD50
:1048B00002A805F0B0FC05460028F6D19DF80830A6
:1048C000A6F636342BB99DF8093013B99DF80A3095
:1048D000F3B16946022005F0BAFCA0BB9DF8083090
:1048E0002BB1009B03F24E239C42DCD9E41A9DF8C5
:1048F0000A3033B99DF8093053B1009B03F5257395
:1049000003E0009B03F2B2235B00A342CBD2E41A84
:104910009DF80B3053B101A9032005F098FC019BD1
:1049200003F52573A342BED268B9E41A9DF80C3092
:10493000002BBAD0A4F22621042005F041FD034B40
:1049400005465E61B1E70546AFE700BF0C1E0020DB
:104950000023F7B5054618462A4E01AFEA5C05EB81
:10496000030E02B108B103B0F0BDFF2A03F1010448
:104970002CD12A5D9C1C032A40D8DFE802F0020CEF
:10498000151E2A5D1C1D9EF8033003EB0223A6F8BA
:1049900034312346E2E72A5D1C1D9EF8033003EB09
:1049A0000223A6F83631F4E72A5D1C1D9EF8033079
:1049B00003EB0223A6F83831EBE72A5D1C1D9EF8B5
:1049C000033003EB0223A6F83C31E2E7042A15D8B2
:1049D000295D023390420BDB9C1896F85C013B4644
:1049E000FEF713F8002814BF00206FF01300D0E783
:1049F0000EEB0004A4783C540130EBE76FF00300A9
:104A0000C7E700BF0C1E002013B50C46052830D8A0
:104A1000DFE800F00308191C1F1F174B5B6B2360B6
:104A2000002024E00DF10601442005F0C1FBF0B99F
:104A3000BDF80610104B4A02A9B122609A63012208
:104A400083F8292013E00C4BDB6BE8E70A4B1B6C67
:104A5000E5E70DF10601642005F0AAFB38B9BDF8C1
:104A600006305B02DBE79A6B226083F8290002B014
:104A700010BD6FF00300FAE70C1E0020F0B54FF0F8
:104A8000FF33CF083D460026136001F007014FEACF
:104A9000C70E052D00D806B1F0BDAF420CBF0B46C6
:104AA0003346445D04BF0C41E4B214F0010F06D05C
:104AB00001267344136001350EF1080EE9E7013356
:104AC000082B4FEA5404F0D1F5E708B50346064831
:104AD0000622B02190F85C01FDF797FF00280CBF7B
:104AE0006FF01300002008BD0C1E00202DE9F04FD0
:104AF00081468A4615461E4600244FF0010B85B0BC
:104B00000DF11008274F48F80C3D0E9B9C4221D117
:104B100000240F9B1E60CCB92846FFF7D6FF044641
:104B2000A0B9214802AE33460622B02190F85C01BC
:104B3000FDF72CFF002808BF6FF013040023E95C89
:104B4000F25C91422AD10133062BF8D1204605B000
:104B5000BDE8F08F424631465046FFF78FFF019A7D
:104B6000531C18D002F1B401890957F82110003103
:104B700018BF012149450ED1D10802F007000529CF
:104B80009CBF0BFA00F6685C04F101049CBF304343
:104B90006854561CB9E76FF03104BAE76FF031047E
:104BA000D4E700BF8C0901080C1E00202DE9F04F4E
:104BB0009E4F9BB0044610AB0C22142197F85C0169
:104BC000FDF7E4FE002840F0EB816FF013001BB00E
:104BD000BDE8F08F049D92B26A43039D1212954284
:104BE00005D159B948F6E022228100231DE2039D38
:104BF0009BB26B43AA1AB3FBF2F30FE242F2B82264
:104C000010E282444FEACA2A02FB0AF202F5FA7263
:104C1000B2FBF9F240F277614A4302F5FA73089366
:104C2000B3FBF9F309930A9B2269190A099B09FB53
:104C300002F259437E4F8031090A02EA0702B2FBB1
:104C4000F8F808BF01210C207A4B4843984528BF4B
:104C50009846FEF704F809FB05F1B1F5481F28BF97
:104C60004FF448110BEA070BABEB410101F5FA7168
:104C7000B1FBF9F10BF5FA7B4FF4167ABBFBF9F9AE
:104C8000227E09020AFB08FAB1FBF9F94FEA400853
:104C90002089002A40F0C18041F25C21664A4FEA37
:104CA00009294243B2FBF1F2C9F5803902FB09F24E
:104CB00002F50042120C02F5803252085243920B68
:104CC0004FF4487909FB02F909F500494FEA1949FF
:104CD00009FB09F90AF500452D0C05FB0590FDF7C8
:104CE000BEFF642200043230B0FBF2F040F6B53172
:104CF000B0FBF8F841F28832069B01FB08280799BF
:104D000042F210720B444FF4FA614FF47A77B8FB19
:104D1000F2F803F5FA72B2FBF1F1B2FBF7F001F52C
:104D2000C811B8F5704FB1FBF0F028BF4FF47048D0
:104D3000FDF795FF000200F5FA70B0FBF7F0404375
:104D400008FB0800FDF78BFF47433C4B374A9F4267
:104D500028BF1F46B2F85431C2F84071D2F858212A
:104D600002FB03FB0BF1800B4FEA1B2B0BFB03FB3E
:104D70006EB1334B0A9A03EA822303EB5603B3FB6B
:104D8000F6F606EB4606764306F50046360C062395
:104D90000335B5FBF3F5C5EBC505B5F5803F4FF41D
:104DA000FA653CBF0AF1030ABAFBF3F3089A38BF6D
:104DB000C3EBC303B2FBF5F23DBF03F500431B0C8D
:104DC0005B43204B9144099A4B44B3FBF2F3FE2220
:104DD0009B037F33B3FBF2F34FF47A795E4306F51E
:104DE000FA76B6FBF9F60BF12000360106F5FA76F5
:104DF0008009FDF734FFB6FBF9F98046B9F1000FE1
:104E000004D0B6FBF5F5AB44BBFBF9F94846FDF71A
:104E100026FF804528BF804654E14FF480324FE79B
:104E20001F465DE1029F5EE1984686E10C1E002070
:104E30000000FFFF666666009A990600AE878F0243
:104E40000000FCFF0000F0FFB04695F82B90B9F190
:104E5000000F6FD0049B002B67D0039B4FEA032AFF
:104E6000049BBAFBF3FA13A90320FFF7CDFD139BB4
:104E7000002B5DD0534594BF4FF0000A4FF0010A5C
:104E8000002858D04FF0000EA4F80AE0029B002B37
:104E900000F0828007F00107BB4A92F8293082F8BF
:104EA0002E70019A042A79D0B3FA83F35B09002E9D
:104EB00008BF4FF00108B9F1000F08BF4FF0010A19
:104EC000B14D08F001080AF0010A85F82F3085F885
:104ED000308085F831A013AF84F818E050350FCD3D
:104EE0000FC795E80700E37D87E807006689E0685B
:104EF0002169A28AB4F808C06468ADF856601494B9
:104F000013AEA5F1100416901791ADF860208DF83E
:104F10006330ADF854C08DF864E00FCE0FC497E84D
:104F2000070085E80700002051E6DDF810A09AE7A9
:104F30009A46A5E7CA460B9B2BBB019B013B022B64
:104F400024D9019B062B00F0FF80092B00F0FC8088
:104F5000059B03F00D03082B1BD0B8F1010F18D0EF
:104F6000019B042B00F00A81BAF1010F00F0F880D8
:104F7000012F00F0F880BA46B84683E70026B14614
:104F8000B246B0467EE74FF0FF0E7FE74FF0050ECA
:104F90007CE74FF0030E79E701277DE7012386E7E1
:104FA00000219DF84A209DF84B30A17503EB0223A8
:104FB000216061609AB29DF846109DF847309DF8D7
:104FC000400003EB01239BB25B02E3609DF84810B5
:104FD00003939DF8493003EB01239BB25B022361ED
:104FE0009DF842109DF8433003EB01239BB20493DC
:104FF000BDF81030A382B7F8523197F83111B3F5EC
:105000007A7F0CD053434FF47A723D7F03F5FA73E5
:1050100093FBF2F33A6A002D7FF4DCAD9AB20029DB
:105020003FF4E2AD930823819301E3750023ADF8CB
:105030003630C308059303F00F0301934FF2A10329
:10504000019AD34003F001030B9397F828300293A1
:10505000002B3FF4E7AE3D7FE66825B1A38A3D6AA9
:105060005D4380352D0A4FF47A79731997F8E02063
:1050700009FB03FB0993D7F8DC3011461846089268
:10508000069305F081F8D7F8E430824697F8E810E7
:105090001846079305F078F8089A099B0BF5004B22
:1050A000082A03F180034FEA1B480CBF02220322A7
:1050B0000A93B8F1000F7FF4A4AD344B324A1F4677
:1050C000C2F84031A4F80A800EA90020FFF79CFC2A
:1050D0000E9B002B3FF4A4AEBB422CBF0027012740
:1050E00000287FF44BAF284D95F82A60002E3FF43E
:1050F000ABAE0FA90220FFF787FC70B90121FF209A
:1051000004F0FBFF48B90DF13601B62005F050F868
:1051100018B90146FF2004F0F0FFBDF836800F9B60
:105120004FEA4822C5F84821002B3FF47DAE9A4251
:1051300094BF4FF000084FF0010800283FF485AEFF
:105140004FF00009CA469DE64FF0040E029B002B6B
:105150007FF4A0AE012295F8293085F82E20A3E631
:105160004FF0020EF2E7D046BE46EFE70123DDF82E
:10517000088085F82E304FF0020E98E6029B002B37
:10518000F4D04FF0020E85E60C1E0020AE878F0291
:10519000034B1B68DA79511CD9711344187A704794
:1051A0006C1F002010B5FFF7F3FF84B2FFF7F0FF8C
:1051B00004EB002080B210BD10B50446054B01463B
:1051C000186802F0E1F8044B1B689A7954409C710E
:1051D00010BD00BF301300206C1F002038B50446FE
:1051E00024200D46FFF7E8FF4D20FFF7E5FF002CD8
:1051F00014BF21203E20FFF7DFFF0022054C284688
:1052000023689A71FFF7D8FF236893F84900BDE837
:105210003840D1E76C1F002001460020DEE710B5C2
:105220000446C0B2FFF7C8FF200ABDE81040C3E73C
:1052300010B5044680B2FFF7F2FF200CBDE8104025
:10524000EDE745282DE9F74F044600F0E18400F230
:10525000E9802A2800F0B18461D8052800F03B825B
:105260001CD8022800F01E8204D8012800F00D820C
:10527000002023E2032800F024820428F8D106202D
:10528000FFF7CAFF0024D74D285D0134FFF794FFD4
:10529000042CF9D10020FFF7C2FF0EE2242800F011
:1052A000718424D82228E3D15020FFF7B5FF0025D0
:1052B0000C27DFF84083CC4ED8F8004004EB85047F
:1052C00094F87930013507FB0363187AFFF774FF10
:1052D00094F87A00FFF770FF94F87B00FFF76CFFFB
:1052E00094F87C00FFF768FF142DE5D1E5E126284E
:1052F00000F04E842828BBD1BC4C0720FFF78CFF60
:10530000B4F81401FFF78BFFB4F81601FFF787FF1D
:1053100094F81801FFF750FFB4F81A01BBE73828DA
:1053200000F0468446D8322800F05D8420D82C282E
:105330009ED1AE4C0C20FFF76FFF94F82401FFF7CD
:105340003BFFB4F82E01FFF76AFFB4F82A01FFF71C
:1053500066FFB4F82C01FFF762FF94F82501FFF710
:105360002BFFB4F83001FFF75AFFB4F8320192E78F
:10537000342800F0A18336287FF47AAF9C4D9B4CF3
:1053800095F8700004F11006C0EBC000C0B2FFF742
:1053900043FF94F97E0195F97430834200F07084E4
:1053A00095F98030834200F06B840834A64200F007
:1053B0008481EEE73D2800F0A3820CD83A2800F063
:1053C0006D823B287FF454AF0120FFF725FF894B06
:1053D0001B68187863E1402800F00C8442287FF4B1
:1053E00047AF824C1020FFF717FF6079FFF7E4FE0C
:1053F000A068FFF71DFF94F82401FFF7DDFEB4F865
:10540000E800FFF70CFFB4F8EA00FFF708FFB4F874
:10541000EC00FFF704FFB4F81401FFF700FFB4F845
:10542000160138E76D2800F02F8200F2868064288C
:1054300000F06C8138D8492800F06D820FD84628DA
:105440007FF416AF0D20FFF7E7FE0020FFF7B4FE54
:105450000020FFF7EDFE0020FFF7EAFE21E24B28D7
:1054600000F0B1834D287FF403AF634D0026287808
:10547000624C00EB4000C0B2FFF7CEFE2B78023446
:105480009E4280F01A8114F8020CFFF795FE14F882
:10549000010C013600EB800000EB800000F2EE20F2
:1054A00080B2FFF7BCFEE9E7682800F0CE812FD874
:1054B000652800F03C8166287FF4DAAE1220FFF701
:1054C000ABFE4F4B00251B88494CB3F5806FD4BF12
:1054D0000126082604F1300737F91500013590FB45
:1054E000F6F080B2FFF79BFE032DF5D1E08EFFF7BB
:1054F00096FE208FFFF793FE608F424CFFF78FFEE2
:105500002088FFF78CFE6088FFF789FEA088C2E63E
:10551000692800F0A6816C287FF4AAAE344C0620DE
:10552000FFF77AFEB4F85400FFF779FEB4F856009E
:10553000FFF775FEB4F85800ADE6732800F0098354
:1055400062D86F2800F00882C0F0AD81702800F0AA
:105550002B8272287FF48CAE244C1620FFF75CFE61
:10556000B4F82A01FFF75BFEB4F8D000FFF757FE4E
:10557000B4F8D200FFF753FEB4F8D400FFF74FFEA3
:10558000B4F86C01FFF74BFE0020FFF715FE00207A
:10559000FFF712FE0020FFF70FFE94F81901FFF746
:1055A0000BFE94F82601FFF707FE0020FFF704FE2C
:1055B000104B1B68B3F956000A2390FBF3F080B23E
:1055C000FFF72DFE94F80E01FFF7F6FD94F8120197
:1055D000FFF7F2FD94F81101FFF7EEFD94F81301C7
:1055E0005DE000BF9B0C0108180B0108A00D002016
:1055F000301300207C1F0020C8120020D40E002091
:10560000F6020020D8120020772800F086820FD8FA
:10561000742819D075287FF42BAE2F20FFF7FCFDDE
:10562000C04C14F8010F002847D0FFF7C5FDF8E77C
:10563000F02800F09982FF287FF41AAE0220FFF7CD
:10564000EBFDB94B188826E600274FF0010BDFF879
:10565000EC8208F1150A0024DFF8F89298F814306B
:10566000A34240F3508200230C2514F80A0005FBE6
:1056700003F202EB090112F80920824200F0D48201
:1056800001331C2BF3D10134E8E70320FFF7C4FDFD
:105690000020FFF791FD2046FFF78EFD0D20FFF75C
:1056A0008BFD0AE00420FFF7B7FD00249F4D285D25
:1056B0000134FFF781FD042CF9D1012003B0BDE8CE
:1056C000F08FFFF7A9FD0220FFF776FD0020FFF71E
:1056D00073FD0020E3E71A20FFF79EFD0024944DA0
:1056E000285D0134FFF768FD0B2CF9D10024914DA2
:1056F000285D0134FFF760FD082CF9D1002400205B
:105700000134FFF759FD072CF9D1D6E70720FFF741
:1057100083FDE720FFF750FD874B5879FFF74CFDDD
:105720000020FFF749FD0420FFF782FDC5E70B20AD
:10573000FFF772FD7C4B814C1888FFF770FDA08845
:10574000012580B2FFF76BFDA0681534C0F3C003DC
:10575000C0F380029B0043EA4203C0F340021343BC
:10576000C0F3401243EAC20300F010001843FFF7F1
:1057700056FD734B34F8092C1B7802F00100C3F37B
:10578000800343EA4003C2F3400043EA800302F08F
:10579000080054F8051C0343C2F3800043EA0013D9
:1057A000C2F3801043EA401301F04000034301F0CC
:1057B0008000034301F480700343C2F3001043EA06
:1057C0004023C2F3401043EA8023C2F3002043EA9F
:1057D000C02301F48050034301F40050034301F45B
:1057E0008040034301F40040034301F4803003434D
:1057F00001F40030034301F48020034301F400204E
:10580000034301F480100343C2F3402043EA4053B2
:10581000002001F00071C2F380220B4343EA82634F
:10582000024614F8016CB24209D2115D05FA01F189
:1058300019421CBF05FA02F108430132F3E7FFF7F2
:10584000F7FC3D4B93F8F40429E71020FFF7E4FC44
:1058500000243C4D285D0134FFF7AEFC102CF9D13B
:105860002BE7394D00242878384E400000F0FE0028
:10587000FFF7D2FC2B789C42BFF41FAF36F8140020
:10588000FFF7CDFC0134F5E72C4C0620FFF7C4FCF4
:10589000E06DFFF7CDFCB4F86000FCE40420FFF7F6
:1058A000BBFC002040E70720FFF7B6FC284B4FF673
:1058B000FF751888214CFF28A8BFFF20C0B2FFF752
:1058C0007BFC606EA842A8BF284620EAE07080B248
:1058D000FFF7A5FCB4F86800FFF7A1FC164B93F89E
:1058E00019314BB10A20E36E5843A842A8BF28469D
:1058F00020EAE07080B2CEE4E06E00F30F00F9E73A
:105900000D4C0220FFF788FC94F87401FFF754FC5B
:1059100094F87301C3E60220FFF77EFC064B9889DA
:10592000B9E400BF9B0901083A1C0020960C01084D
:10593000A00C0108AC0C0108A00D002030130020C1
:10594000EE1D00206C130020C8120020DA1C00207D
:10595000781B0020180B0108C04C0B20FFF75CFCE3
:10596000236800251878FFF727FC23685878FFF78D
:1059700023FC23682B4418790135FFF71DFC032D08
:10598000F7D12368D879FFF717FC23689878FFF7D9
:1059900013FC2368D878FFF70FFC23685889FFF7BA
:1059A0003EFC2368187A7AE6AD4C1E20FFF734FCE3
:1059B000236800251B78022B6BD1DFF8B082A94F3A
:1059C000A94E236805F1080253F82200414606F06B
:1059D000BDF809F061FF80F30800C0B2FFF7ECFBEF
:1059E0002368394603EB8503D86A06F0AFF809F05F
:1059F00053FF80F30800C0B2FFF7DEFB236805F118
:105A00000E02314653F8220006F0A0F809F044FFD8
:105A100080F30800C0B20135FFF7CEFB032DD0D1D3
:105A2000924E072D236827D13146586C06F08EF828
:105A300009F032FF80F30800C0B2FFF7BDFB236816
:105A40003146986C06F082F809F026FF80F30800D2
:105A5000C0B2FFF7B1FB236893F84C0006F01EF8C4
:105A600009F01AFFFF28A8BFFF20C0B20135FFF7D9
:105A7000A3FB0A2DD5D120E62B445878FFF79CFBD9
:105A800023682B44D87AFFF797FB23682B44587D73
:105A9000ECE723682B445878FFF78EFB23682B44F0
:105AA000D87AFFF789FB23682B44587D0135FFF72F
:105AB00083FB0A2DEDD100E64820FFF7ADFB002562
:105AC0000626674F3C6806FB054494F8CE00FFF7B6
:105AD00073FB94F8C900FFF76FFB94F8CA00FFF757
